:0A0000000C9458010C9484010C9438
:10000A0084010C94E9020C9400000C9400000C94F6
:10001A0000000C9400000C9400000C9486010C94CF
:10002A0000000C9400000C9400000C94E9010C945C
:10003A0000000C942C020C948D010C9400000C947A
:10004A0000000C9400000C9400001027E8036400E0
:10005A000A00010000100001100001000000000069
:10006A00000000000000FEFDFBF731323378343522
:10007A0036783738397878307878666C6F6F7231BD
:10008A00206F6E2066697265002070656F706C65FE
:10009A0020696E7369646500666C6F6F7232206FD7
:1000AA006E206669726500666C6F6F7231206F6EC2
:1000BA0020666972652100666C6F6F7232206F6EFE
:1000CA0020666972652100457661637561746564AD
:1000DA000053797374656D206F66662E00537973C9
:1000EA0074656D204F46462E00696E76616C6964B0
:1000FA0020636F64650054657374206D6F646500D6
:10010A0031737420666C6F6F723A2000326E64200D
:10011A00666C6F6F723A200031737420666C6F6F71
:10012A00723A20300A00326E6420666C6F6F723A3F
:10013A0020300045766163756174656421005361FE
:10014A007261206578697465642E0053617261205A
:10015A00656E74657265642E004174696568206510
:10016A0078697465642E00417469656820656E74E7
:10017A00657265642E005A616872612065786974D7
:10018A0065642E005A6168726120656E74657265D5
:10019A00642E004A61636B206578697465642E0079
:1001AA004A61636B20656E74657265642E005368DC
:1001BA00616B696261206578697465642E005368B1
:1001CA00616B69626120656E74657265642E0000F8
:1001DA0080C00100020066000800060068000F00E7
:1001EA00600284000F006F0293000F007E02A200DB
:1001FA000F008D02930004000A04700010000E0420
:10020A00740010009C02B1001000AC02C1000A0088
:10021A00BC02D1000C00C602DB000C00D202E700CF
:10022A000C00DE02E7000D00EA02F3000A00F70202
:10023A0000010F00010384000F00100393000C005B
:10024A001F030A010C002B0316010E0037032201BB
:10025A000D00450330010B0052033D010B005D0305
:10026A003D010D00680348010E00750355010E009B
:10027A00830363010F00910371010E00A003800143
:10028A000F00AE038E010D00BD039D010E00CA03CF
:10029A00AA011000D803B8011100E803C80102003E
:1002AA004004DA010000F894EE27ECBBF1E0F5BF58
:1002BA00E5BF8DE0A2E0BB27ED938A95E9F780E0E0
:1002CA0098E0A0E6ED930197E9F7ECEDF1E085916E
:1002DA009591009761F0A591B59105901590BF0190
:1002EA00F00105900D920197E1F7FB01F0CFEFE5E0
:1002FA00EDBFE8E0EEBFC0E6D2E00C94C503979AE2
:10030A001895EA93E5E8EDBDEEEEECBDE991189596
:10031A000E949905E091FD03A9EFB3E0F0E0EE0F2A
:10032A00FF1FAE0FBF1FE4B1F5B1ED93FC93A0918F
:10033A00FD03AF5FA093FD03A23018F0E0E0E09365
:10034A00FD03E091FD03E7B98BE18A95F1F7042CEF
:10035A00052841F4A091F903B091FA03A038E2E02C
:10036A00BE0708F40EC00E942B05A0E6B2E00E9468
:10037A00A7050E94AE05AFE6B2E00E94B4050E944E
:10038A00B905062C072841F4A091FB03B091FC03A0
:10039A00A038E2E0BE0708F416C00E942B05AEE7BB
:1003AA00B2E00E94A705FAD0E05DAE2F0E9439059F
:1003BA00ADE8B2E00E94B4053F01979A0E94C905D0
:1003CA00A8E50E94CE05B5C10E9499051A930A9321
:1003DA001BB10CB1083749F40E942B05ACE9B2E015
:1003EA000E945905BB2499248824083549F40E949F
:1003FA002B05ACEAB2E00E945905BB249924882453
:10040A000A3731F40E942B05ACEBB2E00E94590581
:10041A00093731F40E942B05A6ECB2E00E94590577
:10042A00E12FEC7189F4E92D9394F0E0E250FC4F4E
:10043A000083ECE0E91509F49924B394ECE0EB1598
:10044A0019F4BB24689420F80991199172C1AA93EE
:10045A00EA93FA93EFB7EA93E0913004E030A9F017
:10046A00E150E0933004E0912F04EF5FE0932F0412
:10047A00E150F0E0E25EFB4FE081ECB9A0912F047D
:10048A00A03119F4E0E0E0932F04E991EFBFF9916C
:10049A00E991A9911895AA93A0913004A031E1F3AA
:1004AA00F894E0913004E03011F45D9918C0E091BD
:1004BA002E04EF5FE0932E04E150F0E0E25EFB4F82
:1004CA00A881A083A0912E04A03119F4E0E0E09362
:1004DA002E04E0913004EF5FE093300402C0E8811B
:1004EA00ECB978940C9497051A930A9310E0143097
:1004FA0060F504E0E12FF0E0E65FFB4FE081E5BB49
:10050A009C9B00E09D9B01E09E9B02E09F9B03E079
:10051A000430C9F0E4E0E19FF001DF01E02FF0E0F0
:10052A00EA0FFB1FE25FFB4FA0809C9BFECF9D9BC7
:10053A00FECF9E9BFECF9F9BFECFA2E3B0E00E9420
:10054A00FD05EA2D16C01F5FD2CFD0CF1A930A93AA
:10055A0000E010E000E010E00C30E0E01E074CF490
:10056A00AEEFB3E0A00FB11FE0E3EC930F5F1F4FB4
:10057A00F3CF0991199108950E94D6050230E0E05F
:10058A001E075CF4F801A1E3B4E00E94DF0511F450
:10059A002F5F3F4F0F5F1F4FF1CF11C00E94D6054B
:1005AA000330E0E01E075CF4F801A5E3B4E00E9422
:1005BA00DF0511F42F5F3F4F0F5F1F4FF1CFF90196
:1005CA000E941006249608950E9499051A938CDFBA
:1005DA001E2FE0913B04F0913C04309711F40E94E5
:1005EA002B05A12F0E943905E0EFE5BBABE3B4E090
:1005FA00ED91FD913196FE93EE933197E35CFB4FBB
:10060A001083A0913B04B0913C0413970CF490C062
:10061A00E0E0E0933B04E0933C04A0913D04A33363
:10062A00A9F4A0913E04A33389F4A0913F04A33313
:10063A0069F4E1E0F0E0E415F50541F4A091F9036D
:10064A00B091FA03AF37E2E0BE0708F00CC00E948F
:10065A002B05A2EDB2E00E9459059498979844247C
:10066A005524A9E718DFA0913D04A333A9F4A0916A
:10067A003E04A33389F4A0913F04A33369F4E1E073
:10068A00F0E0E615F70541F4A091FB03B091FC03F5
:10069A00AF37E2E0BE0708F00CC00E942B05AEEDB2
:1006AA00B2E00E9459059498949A66247724A9E79F
:1006BA00F2DEA0913B04B0913C04109769F4A0913A
:1006CA003D04A33341F4A0913E04A33321F4A09145
:1006DA003F04A33309F001C02BC00E942B05AAEEE8
:1006EA00B2E00E945905A0913D04A93341F4A091BA
:1006FA003E04A93321F4A0913F04A93309F018C09C
:10070A000E942B05A7EFB2E00E945905A8EEB3E0BC
:10071A000E94FD050E942B05A1E0B3E00E94A705F7
:10072A000E94AE05A0E1B3E00E94B4050E94B9059B
:10073A001991E991EFBFF991E991B991A99199912B
:10074A00899179916991F9901990099018950E9467
:10075A002B0512DF6F01AFE1B3E00E94E9051EDF4E
:10076A006F01E0E0EA93A1E00E941A05ABE2B3E070
:10077A000E94E905E0E0EA93A0E00E941A050895C4
:10078A0020E030E0ECE0EABBE3EFEBBBE1E8E7BBFB
:10079A00E4E0E8BBEFE0E4BBE0EFE5BBE0EDE1BBA2
:1007AA00ECE4E2BBE0E0EFBDE3E0EEBDE2ECEDBD80
:1007BA00E7EFECBDE0E0E7BDE6BDEBBDEABDE9BDB4
:1007CA00E8BDE4E0E9BFE0E0E7B9EBEAE6B9E0EC6E
:1007DA00E0BFEBB7E06EEBBFEAE0E5BFE0E0E4BF05
:1007EA00E0EEEABFE0E0EBB9E8EDEAB9E6E8E0BD41
:1007FA00E0E0E0BDE3E3E9B9A0E10E946A0578948C
:10080A00A7E3B3E00E945905A5E4B3E00E945905A5
:10081A00B3DE8F01C3DE9F01949909C0E1E0F0E0E5
:10082A00E415F50521F400240016010609F00DC0AF
:10083A000E942B05A2E5B3E00E945905949A979865
:10084A000E94C905AAE70E94CE05949909C0E1E071
:10085A00F0E0E615F70521F400240216030609F074
:10086A000DC00E942B05ADE5B3E00E94590597988B
:10087A00949A0E94C905AAE70E94CE05E09106044F
:10088A00F0E0E333A0E0FA07F1F40E942B05E091CF
:10089A003104F0913204309751F0A8E6B3E00E9497
:1008AA005905E0E0E0933104E09332040BC0042CD4
:1008BA00052841F4A5E7B3E00E94B405E0933104AA
:1008CA00F09332048AC0E733A0E0FA07F9F40E94F1
:1008DA002B05E0913304F0913404309749F0A3E8F2
:1008EA00B3E00E945905E3E3F4E0A0E0B0E00BC0F6
:1008FA00042C052851F4A1E9B3E00E945905E3E369
:10090A00F4E0A1E0B0E0A083B18367C0E133A0E0E6
:10091A00FA07F1F40E942B05E0913504F0913604B0
:10092A00309751F0A0EAB3E00E945905E0E0E09365
:10093A003504E09336040BC0062C072841F4AEEACE
:10094A00B3E00E94B405E0933504F093360445C041
:10095A00E634A0E0FA07F9F40E942B05E091370487
:10096A00F0913804309749F0ADEBB3E00E94590595
:10097A00E7E3F4E0A0E0B0E00BC0062C072851F44E
:10098A00AAECB3E00E945905E7E3F4E0A1E0B0E085
:10099A00A083B18322C0E134A0E0FA0721F50E94C6
:1009AA002B05E0913904F0913A04309749F0A8ED0B
:1009BA00B3E00E945905E9E3F4E0A0E0B0E00BC01F
:1009CA00062C072851F4A8EEB3E00E945905E9E382
:1009DA00F4E0A1E0B0E0A083B183B8DDA8EEB3E013
:1009EA000E94FD05B4DE14CFFFCFAA93E8B3EF70DF
:1009FA00AE2FE881E07FEA2BE8BB8DE08A95F1F71C
:100A0A00C39A8DE08A95F1F7C3988DE08A95F1F73C
:100A1A0089C0AA93A881E9DFE881E295E883A881E1
:100A2A00E4DF85E88A95F1F77DC0AA93E881F0E0D2
:100A3A00E05CFB4FE081A981AE0FEBDFE981E09337
:100A4A004404E881E093450422960895A2E00E94B6
:100A5A00EF05ACE0DEDFA1E00E94EF05E0E0E09305
:100A6A004504E09344040895AA93A881AA3031F07A
:100A7A00E0914604A0914404AE1760F0E0E0EA93E6
:100A8A00A0914504AF5FA0934504CFDFA881AA30A7
:100A9A0009F448C0E0914404EF5FE0934404C09A2B
:100AAA00A881B7DFC0983EC0BA93AA931A93A981C6
:100ABA00BA81ED91A983BA831E2FE03019F0A12FD4
:100ACA00D3DFF5CF188123960895AA93E7B3E06F91
:100ADA00E7BBBB9AB89AB99AC398C098C198E881FB
:100AEA00E0934604E058E0934204E881E054E0933E
:100AFA004304A4E1B0E00E94FD050E94F5050E94AE
:100B0A00F5050E94F505A0E270DF88EC90E00197F8
:100B1A00F1F7A8E27EDFA4E07CDFA5E87ADFA6E0B1
:100B2A0078DF94DF219608950A921A92FA926A93CC
:100B3A007A938A939A93AA93BA93EA93FA93EFB71A
:100B4A00EA9308950E945905E0E0EA93A1E00C9423
:100B5A001A050E94C102E05DAE2F0C9439050E946D
:100B6A005905E1E0F0E008952F01979A9698A5E0DB
:100B7A00B0E00E94FD05A8E70E945002A5E0B0E09F
:100B8A000E94FD05969A08959698A5E0B0E00C9407
:100B9A00FD050E945002A5E0B0E00E94FD05969A6C
:100BAA0008950E940B0600E010E020E030E000E02B
:100BBA0010E00895EE0FFF1FAE0FBF1F0E94070639
:100BCA00E130A0E0FA0708950E945905AC2DA05D16
:100BDA000C9439050E940E05A3E0B0E00C94FD05C3
:100BEA00A0E30E94FA0488EC90E00197F1F70895D7
:100BFA00109639F080ED97E00197F1F7A8951197D3
:100C0A00C9F70895ED91FC91119708953A932A93A3
:100C1A001A930A9308953B812A81198108810895BC
:00000001FF
